S0120000446174614C6F676765722E7372656338
S11300000C94E1000C94FE000C94FE000C94FE0091
S11300100C94FE000C94FE000C94FE000C94FE0064
S11300200C94FE000C94FE000C94FE000C94FE0054
S11300300C94FE000C94FE000C94FE000C94FE0044
S11300400C9410020C94FE000C9424020C94FE00F8
S11300500C94FE000C94FE000C94FE000C94FE0024
S11300600C94FE000C94FE000C94FE000C94FE0014
S11300700C94FE000C94FE000C94FE000C94FE0004
S11300800C94FE000C94FE000C94FE000C94FE00F4
S11300900C94FE000C94FE000C94FE000C94FE00E4
S11300A00C94FE000C94FE000C94FE000C94FE00D4
S11300B00C94FE006E616E00696E660000407A105A
S11300C0F35A00A0724E18090010A5D4E80000E805
S11300D07648170000E40B54020000CA9A3B000063
S11300E000E1F505000080969800000040420F00F2
S11300F00000A08601000000102700000000E803B3
S1130100000000006400000000000A00000000007D
S11301100100000000002C76D888DC674F0823DF3C
S1130120C1DFAE59E1B1B796E5E3E453C63AE6510F
S1130130997696E8E6C28426EB898C9B62ED407C36
S11301406FFCEFBC9C9F40F2BAA56FA5F490055AD2
S11301502AF75C936B6CF9676DC11BFCE0E40D47F7
S1130160FEF520E6B500D0ED902E0300943577051A
S11301700080841E080000204E0A000000C80C33D2
S11301803333330F986E12831141EF8D2114893B61
S1130190E65516CFFEE6DB18D1844B381BF77C1DE1
S11301A0901DA4BBE424203284725E228100C9F134
S11301B024ECA1E53D276364696E6F70737578580C
S11301C05B0011241FBECFEFD8E0DEBFCDBF11E02E
S11301D0A0E0B1E0E2E5F8E102C005900D92A23E94
S11301E0B107D9F721E0A2EEB1E001C01D92AA3E09
S11301F0B207E1F70E9490020C94270C0C940000C3
S1130200CF93C82F8A3019F48DE00E940001E0ECEE
S1130210F0E0808185FFFDCFC093C60080E090E0D0
S1130220CF910895E0ECF0E080818823ECF7809191
S1130230C60090E008951092C50087E68093C4003C
S1130240E1ECF0E088E18083808180688083E4EEE3
S1130250F1E08EE091E09383828380E091E09183EA
S1130260808308952F923F924F925F926F927F9274
S11302708F929F92AF92BF92CF92DF92EF92FF92B2
S11302800F931F93CF93DF936B01C091E301D0E0F1
S11302900E94D406862E972EDF92CF927F936F937F
S11302A08CE191E09F938F930E9452080F900F90DE
S11302B00F900F900F900F908114910409F49BC03C
S11302C0A12CB12C6894222424F86894332435F8A2
S11302D00F2EF3E36F2EF1E07F2EF02D760105E56E
S11302E011E01F922F921F923F9229E231E03F9337
S11302F02F930E94520885B125B135B190E08095C5
S11303009095807199279F938F93822F82251F92B6
S11303108F931F923F921F923F937F926F920E94FE
S1130320520885B1832585B985B125B135B190E0F1
S113033080959095807199279F938F93822F822522
S11303401F928F931F923F921F923F9324E431E0B8
S11303503F932F930E9452082DB73EB7265E3F4F1E
S11303600FB6F8943EBF0FBE2DBFC114D104C9F11E
S1130370412C512C9091E30185B125B11F929F939B
S113038090E080959095807199279F938F931F9209
S11303902F93DF93CF931F930F930E945208809162
S11303A0E30190E02DB73EB7265F3F4F0FB6F894B8
S11303B03EBF0FBE2DBFC817D90739F084E691E0C0
S11303C00E94680881E090E018C08FEC97E00197E4
S11303D0F1F700C000009FEF491A590A4E145F0458
S11303E049F62FEFA21AB20A8A149B0409F079CFB6
S11303F080E090E002C080E090E0DF91CF911F9117
S11304000F91FF90EF90DF90CF90BF90AF909F90AF
S11304108F907F906F905F904F903F902F900895B2
S11304201F920F920FB60F9211248F931C9904C040
S113043081E08093E30102C01092E3018F910F9059
S11304400FBE0F901F9018951F920F920FB60F9228
S113045011248F9381E08093E2018F910F900FBE5E
S11304600F901F90189585B5836085BDEEE6F0E08A
S1130470808181608083089594B1981303C094B1FE
S1130480962B94B997B1891303C097B1962B97B95A
S11304909AB1891303C08AB1682B6AB9089595B1DA
S11304A0981303C095B1962B95B998B1891303C0DD
S11304B098B1962B98B99BB1891303C08BB1682B63
S11304C06BB9089593B1982381E009F480E008950D
S11304D095B1892B85B9089595B18095982395B9DF
S11304E00895EAE7F0E08081806480838091780059
S11304F0909179000895806480937C0087E88093CC
S11305007A0081E080937E000E94710208958EE655
S113051091E09F938F930E9452080F900F9008953B
S1130520CF93DF93CDB7DEB7C054D1090FB6F8949B
S1130530DEBF0FBECDBF0E941B0181E00E947B0283
S113054084B160E20E943C0285B160E10E944F02E6
S11305500E94330278940E948702CE0101967C01A6
S113056001E711E00F2EF0E8AF2EF1E0BF2EF02DE1
S11305700F2EF4E98F2EF1E09F2EF02D0F2EFBE7C6
S1130580CF2EF1E0DF2EF02D682E7F2C8091E2013A
S1130590882309F47CC0FF92EF921F930F930E946B
S11305A0980864E771E0862D972D0E9402080F9049
S11305B00F900F900F90892BA1F480E20E946802A3
S11305C080E20E9462021F928F93DF92CF920E9478
S11305D0520819820E9487020F900F900F900F907B
S11305E054C064E871E0862D972D0E940208892B7F
S11305F0A1F480E20E946C0280E20E9462021F92D7
S11306008F93DF92CF920E94520819820E94870230
S11306100F900F900F900F9038C06CE871E0862D0A
S1130620972D0E940208892B91F48091E3011F9277
S11306308F939F928F920E9452081092E301198225
S11306400E9487020F900F900F900F901EC06DE9CB
S113065071E0862D972D0E940208892B81F40E9457
S113066071021F928F93BF92AF920E945208198217
S11306700E9487020F900F900F900F9006C087EA98
S113068091E00E9468080E9487021092E201809122
S1130690E301882309F47ACF82ED91E00E9468088F
S11306A06AEF70E080ED97E00E9432016FCFA0E125
S11306B0B0E0EDE5F3E00C94E8067C011B016A016F
S11306C0FC0117821682838181FF44C39E012F5F40
S11306D03F4F3901F7019381F10193FD859193FF18
S11306E081911F01882309F431C3853239F493FDC4
S11306F0859193FF81911F01853239F4B70190E010
S11307000E94160856016501E5CF10E0512C912C8A
S1130710FFE1F915D8F08B3279F038F4803279F0B2
S11307208332A1F4F92DF0612EC08D3261F0803353
S113073069F4292D21602DC0392D3260932E892D25
S11307408460982E2AC0E92DE86015C097FC2DC05E
S113075020ED280F2A3088F496FE06C03AE0139F55
S1130760200D1124122F19C08AE0589E200D112447
S1130770522EE92DE0629E2E10C08E3231F496FC8A
S1130780E5C2F92DF0649F2E08C08C3621F4292D82
S11307902068922E02C0883641F4F10193FD8591C0
S11307A093FF81911F018111B3CF9BEB980F93307D
S11307B020F4992D9061805E07C09BE9980F9330D7
S11307C008F066C1992D9F7E96FF16E09F73992EBF
S11307D0853619F49064992E08C0863621F4392F91
S11307E03068932E02C01111115097FE07C01C33BC
S11307F050F444244394410E27E00BC0183038F0E1
S113080027E017E005C027E09CE3492E02C0212F12
S1130810412C560184E0A80EB11CF601608171815F
S113082082819381042DA3010E941F076C01F98129
S1130830FC87F0FF02C0F3FF06C091FC06C092FEE5
S113084006C000E205C00DE203C00BE201C000E0F7
S11308508C858C7019F001115AC29BC297FE10C08E
S11308604C0CFC85F4FF04C08A81813309F44A945A
S1130870141474F528E0241578F588E0482E2CC06B
S113088096FC2AC0812F90E08C159D059CF03CEFCE
S1130890C3163FEFD30674F0892D8068982E0AC0E2
S11308A0E2E0F0E0EC0FFD1FE10FF11D80818033E9
S11308B019F411501111F4CF97FE0EC0442443943F
S11308C0410E812F90E0C816D9062CF41C1904C0DF
S11308D04424439401C010E097FE06C01C141D0478
S11308E034F4C601019605C085E090E002C081E0C1
S11308F090E001110196112331F0212F30E02F5F98
S11309003F4F820F931F252D30E08217930714F475
S1130910581A01C0512C892D897049F4552039F099
S1130920B70180E290E00E9416085A94F7CF0023A2
S113093029F0B701802F90E00E94160893FC09C0AB
S1130940552039F0B70180E390E00E9416085A94CC
S1130950F7CF97FE4CC04601D7FE02C0812C912CE4
S1130960C60188199909F301E80FF91FFE87ED877D
S1130970960124193109388B2F87012F10E0119526
S1130980019511093FEF8316930629F4B7018EE20E
S113099090E00E941608C814D9044CF08F859889F9
S11309A08815990524F4ED85FE85818101C080E3D5
S11309B0F1E08F1A91082D853E852F5F3F4F3E87CA
S11309C02D87801691062CF0B70190E00E9416083E
S11309D0D9CFC814D90441F49A81963320F49533BD
S11309E019F43C8534FF81E3B70190E04EC08A815D
S11309F0813319F09C859F7E9C87B70190E00E940B
S1130A001608111105C094FC18C085E690E017C0C3
S1130A10B7018EE290E00E9416081E5F82E001E0BA
S1130A20080FF301E80FF11D8081B70190E00E94E7
S1130A301608802F0113F3CFE6CF85E490E0B701C9
S1130A400E941608D7FC06C0C114D10441F4EC85F9
S1130A50E4FF05C0D194C194D1088DE201C08BE2BA
S1130A60B70190E00E94160880E32AE0C216D10480
S1130A702CF08F5FFAE0CF1AD108F7CFB70190E0DE
S1130A800E941608B701C601C0960E94160854C1F8
S1130A90833631F0833779F0833509F056C020C0AE
S1130AA0560132E0A30EB11CF6018081898301E076
S1130AB010E0630112C05601F2E0AF0EB11CF60162
S1130AC0C080D18096FE03C0612F70E002C06FEF3A
S1130AD07FEFC6010E940B088C01F92DFF7714C02B
S1130AE0560122E0A20EB11CF601C080D18096FE10
S1130AF003C0612F70E002C06FEF7FEFC6010E9458
S1130B00F7078C01F92DF0689F2EF3FD1AC0852D8F
S1130B1090E008171907A8F4B70180E290E00E945A
S1130B2016085A94F4CFF60197FC859197FE8191AB
S1130B306F01B70190E00E94160851105A940150B9
S1130B4011090115110579F7F7C0843611F08936BA
S1130B5061F5560197FE09C024E0A20EB11CF6010E
S1130B6060817181828193810AC0F2E0AF0EB11C71
S1130B70F60160817181072E000C880B990BF92D09
S1130B80FF769F2E97FF09C090958095709561958B
S1130B907F4F8F4F9F4FF0689F2E2AE030E0A301D4
S1130BA00E94AE08C82EC6183FC0092D853721F40F
S1130BB00F7E2AE030E01DC0097F8F3691F018F4D3
S1130BC0883559F0C3C0803719F0883711F0BEC09A
S1130BD0006104FF09C0046007C094FE08C00660F9
S1130BE006C028E030E005C020E130E002C020E18A
S1130BF032E0560107FF09C084E0A80EB11CF601DB
S1130C00608171818281938108C0F2E0AF0EB11CD2
S1130C10F6016081718180E090E0A3010E94AE083A
S1130C20C82EC6180F77902E96FE0BC0092D0E7F86
S1130C30C11650F494FE0AC092FC08C0092D0E7E21
S1130C4005C0DC2C092D03C0DC2C01C0D12E04FF0F
S1130C500DC0FE01EC0DF11D8081803311F4097E7D
S1130C6009C002FF06C0D394D39404C0802F8678B1
S1130C7009F0D39403FD11C000FF06C01C2DD51448
S1130C8080F4150D1D190DC0D51458F4B70180E278
S1130C9090E00E941608D394F7CFD51410F45D1891
S1130CA001C0512C04FF10C0B70180E390E00E9402
S1130CB0160802FF17C001FD03C088E790E002C0D8
S1130CC088E590E0B7010CC0802F867859F001FFC9
S1130CD002C08BE201C080E207FD8DE2B70190E023
S1130CE00E941608C11638F4B70180E390E00E9410
S1130CF016081150F7CFCA94F301EC0DF11D808151
S1130D00B70190E00E941608C110F5CF15C0F4E0B9
S1130D10F51560F584E0581A93FE1FC0011127C031
S1130D202C8523FF2AC004EB10E0392D3071932E5B
S1130D30F8018491811124C0552009F4E4CCB70151
S1130D4080E290E00E9416085A94F6CFF70186815B
S1130D50978126C08FEF9FEF23C0B70180E290E018
S1130D600E9416085A945110F8CFD8CF512CB701CD
S1130D70802F90E00E941608D3CF08EB10E0D5CF67
S1130D8091108052B70190E00E9416080F5F1F4F28
S1130D90CFCF23E0251510F483E0BDCF512CC0CF75
S1130DA06096E2E10C940407AA1BBB1B51E107C047
S1130DB0AA1FBB1FA617B70710F0A61BB70B881FE7
S1130DC0991F5A95A9F780959095BC01CD01089576
S1130DD02F923F924F925F926F927F928F929F9247
S1130DE0AF92BF92CF92DF92EF92FF920F931F9335
S1130DF0CF93DF93CDB7DEB7CA1BDB0B0FB6F894E6
S1130E00DEBF0FBECDBF09942A88398848885F8425
S1130E106E847D848C849B84AA84B984C884DF8096
S1130E20EE80FD800C811B81AA81B981CE0FD11D7A
S1130E300FB6F894DEBF0FBECDBFED010895283084
S1130E4008F027E03327DA01990F311D87FD9160FF
S1130E5000966105710539F432602E5F3D9330E3ED
S1130E602A95E1F708959F3F30F0803871056105B8
S1130E7009F03C5F3C5F3D93913008F08068911D20
S1130E80DF93CF931F930F93FF92EF92192F987FC5
S1130E909695E92F96959695E90FFF27EA5EFE4F02
S1130EA099273327EE24FF24A701E701059008942E
S1130EB0079428F4360FE71EF81E491F511D660FCC
S1130EC0771F881F991F0694A1F70590079428F4AB
S1130ED0E70EF81E491F561FC11D770F881F991F63
S1130EE0661F0694A1F70590079428F4F80E491F8D
S1130EF0561FC71FD11D880F991F661F771F0694A1
S1130F00A1F70590079420F4490F561FC71FD81F57
S1130F10990F661F771F881F0694A9F7849110956F
S1130F20177041F0D695C79557954795F794E79470
S1130F301A95C1F7ECEBF0E0689415901591359192
S1130F406591959105907FE27395E118F10A430B41
S1130F50560BC90BD009C0F7E10CF11E431F561FF5
S1130F60C91FD01D7EF4703311F48A95E6CFE8943E
S1130F70015030F0080F0AF40027021708F4202F5C
S1130F802395022F7A3328F079E37D932A95E9F7A4
S1130F9010C07D932A9589F60694979567953795A1
S1130FA017951794E118F10A430B560BC90BD00996
S1130FB098F023957E9173957A3308F070E37C93CF
S1130FC02013B8F77E9170617D9330F0839571E3BF
S1130FD07D9370E32A95E1F71124EF90FF900F9130
S1130FE01F91CF91DF91992787FD90950895FC017A
S1130FF00590615070400110D8F7809590958E0F40
S11310009F1F0895FB01DC018D910190801901104F
S1131010D9F3990B0895FC016150704001900110BF
S1131020D8F7809590958E0F9F1F08950F931F9367
S1131030CF93DF93FB01238121FD03C08FEF9FEF4B
S11310402CC022FF16C04681578124813581421766
S1131050530744F4A081B1819D012F5F3F4F318339
S113106020838C93268137812F5F3F4F37832683DC
S113107014C08B01EC01FB010084F185E02D09957E
S1131080892BE1F6D80116968D919C9117970196BC
S113109017969C938E931697CE01DF91CF911F9153
S11310A00F910895A0E0B0E0E8E5F8E00C94F806AC
S11310B0AE014B5F5F4FFA0161917191AF01809175
S11310C0E6019091E7010E945703E2E00C941407B3
S11310D00F931F93CF93DF93E091E601F091E70123
S11310E0238121FF1BC08C01D0E0C0E0F801819175
S11310F08F016091E6017091E701DB011896ED9193
S1131100FC911997882331F00995892B79F3DFEF46
S1131110CFEFECCF8AE00995892B19F08FEF9FEF81
S113112002C08D2F9C2FDF91CF911F910F910895B5
S1131130A0E0B0E0EEE9F8E00C94F806AE014B5FF5
S11311405F4FFA0161917191AF018091E401909137
S1131150E5010E94A80AE2E00C941407FA01AA2708
S1131160283051F1203181F1E8946F936E7F6E5FE6
S11311707F4F8F4F9F4FAF4FB1E03ED0B4E03CD094
S1131180670F781F891F9A1FA11D680F791F8A1F77
S1131190911DA11D6A0F711D811D911DA11D20D0DE
S11311A009F468943F912AE0269F11243019305D98
S11311B03193DEF6CF010895462F4770405D419389
S11311C0B3E00FD0C9F7F6CF462F4F70405D4A33D6
S11311D018F0495D31FD4052419302D0A9F7EACF9E
S11311E0B4E0A6959795879577956795BA95C9F7CD
S11311F000976105710508959B01AC010A2E0694C0
S11312005795479537952795BA95C9F7620F731F78
S1131210841F951FA01D089520FD09C0FC0123FD16
S113122005C022FF02C07383628351834083089503
S113123044FD17C046FD17C0AB01BC01DA01FB0138
S1131240AA0FBB1FEE1FFF1F1094D1F74A0F5B1F9D
S11312506E1F7F1FCB01BA01660F771F881F991F6E
S113126009C033E001C034E0660F771F881F991F5F
S11312703150D1F7620F711D811D911D08950F9397
S11312801F93CF93DF938C01C8010E94CD0BEC0117
S113129097FD08C00E94B90B892BB1F7B801CE01A4
S11312A00E940B0CCE01DF91CF911F910F910895F5
S11312B08F929F92AF92BF92EF92FF920F931F93E0
S11312C0CF93DF938C01D62F7A01B22E0E94CD0BDF
S11312D09C0133272B32310531F02D32310561F475
S11312E08B2D8068B82ED15011F480E068C0C801FD
S11312F00E94CD0B97FDF9CFCB2DCD7F2B2D2073E5
S113130009F58033F9F4AA24AA94AD0E09F443C074
S1131310C8010E94CD0B97FD3EC09C012F7D332751
S11313202835310549F4C264D250A9F1C8010E949C
S1131330CD0B97FF07C02FC0B6FE02C0C26001C02C
S1131340C261DA2D812C912C540120ED280F283014
S113135080F0C4FF04C0B8010E940B0C19C02A30ED
S113136040F0C6FFF8CF2F7D3FEE320F363098F7AE
S113137027504C2FC501B4010E9418094B015C0190
S1131380C260D15059F0C8010E94CD0B97FFDDCF48
S1131390C1FD04C0AACF812C912C5401C7FF08C001
S11313A0B094A09490948094811C911CA11CB11CB5
S11313B02C2FB501A401C7010E940C0981E0DF9123
S11313C0CF911F910F91FF90EF90BF90AF909F909E
S11313D08F900895A0E2B0E0E0EFF9E00C94EB0602
S11313E05C01962E7A01F9018E010F5F1F4F68018F
S11313F080E2D8011D928A95E9F7D50113968C9065
S113140080E090E0612C712C30E061E070E083FCBE
S1131410259183FE21918F01522E211103C080E07A
S113142090E092C02E3511F4009751F1432F50E013
S1131430481759073CF42D3559F12D3219F477200A
S113144009F103C0772009F46AC0452D46954695F5
S11314504695D601A40FB11D452D47708B0102C0DE
S1131460000F111F4A95E2F7A8015C91452B4C939C
S1131470651459F0561410F45394E7CF5A94E5CFF9
S113148031E004C07724739401C0712C0196BFCF5E
S1131490772019F08E8180628E83311103C08824F5
S11314A0839417C0F6019E012F5D3F4F8081809584
S11314B081932E173F07D1F7F2CFE114F10429F0FD
S11314C0D7018C93F70131967F019A94812C99204E
S11314D0F9F0C5010E94CD0B97FD18C0FC01FF2750
S11314E023E0F595E7952A95E1F7EC0DFD1D2081A4
S11314F030E0AC014770552702C0359527954A95D1
S1131500E2F720FDDACFB5010E940B0C811087CFE2
S1131510E114F10411F0D7011C92C80115C0422F47
S1131520469546954695D601A40FB11D422F4770A6
S11315308B0102C0000F111F4A95E2F7A8015C91CC
S1131540452B4C93622EA2CFA096EFE00C94070794
S1131550A0E0B0E0EEEAFAE00C94EB066C01EB01DB
S11315605A01FC0117821682512CF601E380FE0118
S1131570E3FC8591E3FE8191182FEF01882309F4A0
S1131580EEC090E00E94B90B892B21F0C6010E94A5
S11315903F09EBCF153241F4FE01E3FC1591E3FE64
S11315A01191EF01153281F4C6010E94CD0B97FD14
S11315B0D4C0412F50E09C01332724173507A9F2EA
S11315C0B6010E940B0CCBC01A3239F4E3FC15911E
S11315D0E3FE1191EF0101E001C000E0F12C20EDE8
S11315E0210F2A3080F402606F2D70E080E090E0DB
S11315F040E20E941809F62EFE01E3FC1591E3FE79
S11316001191EF01ECCF01FF03C0F11003C0A7C09B
S1131610FF24FA94183619F01C3651F010C0FE015C
S1131620E3FC1591E3FE1191EF01183641F40860D3
S11316300460FE01E3FC1591E3FE1191EF01112317
S113164009F48DC0612F70E086EB91E00E94C20B1B
S1131650892B09F484C000FD07C0F50180809180C6
S1131660C50102965C0102C0812C912C1E3651F4F6
S1131670F6014681578160E070E0202FC4010E948A
S11316800C0973CF1336A9F401FD02C0FF24F394AF
S1131690C6010E94CD0B97FD60C08114910429F00E
S11316A0F4018083C40101964C01FA94F110F0CF47
S11316B050C01B3559F49E01A4016F2DC6010E9430
S11316C0EA09EC01892B09F044C03EC0C6010E941E
S11316D03F0997FD42C01F3661F128F4143639F1F1
S11316E0193651F128C0133771F0153701F123C0B1
S11316F08114910429F0F4016082C40101964C0123
S1131700FA94FF2071F0C6010E94CD0B3C0197FDB5
S113171008C00E94B90B892B59F3B601C3010E947A
S11317200B0C81149104A9F0F401108212C0006220
S113173003C0006101C00064202FA4016F2DC60105
S11317400E945809811105C0F6018381807329F430
S113175006C000FD0ACF539408CF552019F0852DFB
S113176090E002C08FEF9FEFCDB7DEB7EFE00C94AF
S1131770070791110C94240C803219F0895085507C
S1131780C8F70895FC010590061621F00020D9F74A
S1131790C00108953197CF010895CF93DF93EC01F1
S11317A02B8120FF33C026FF0AC02F7B2B838E8121
S11317B09F8101969F838E838A8190E029C022FFB6
S11317C00FC0E881F9818081082E000C990B0097E5
S11317D019F420622B831AC03196F983E8830EC072
S11317E0EA85FB85099597FF09C02B81019611F0C5
S11317F080E201C080E1822B8B8308C02E813F816F
S11318002F5F3F4F3F832E83992702C08FEF9FEFB7
S1131810DF91CF910895FB01238120FF12C026FDA3
S113182010C08F3F3FEF930761F082832F7D2064C8
S113183023832681378121503109378326839927D1
S113184008958FEF9FEF0895992788270895F894B6
S1051850FFCFC4
S1131852000000010000000000001201000000006E
S11318620002000000000001000000005354415235
S1131872542025692025690A006C622025692025E7
S1131882690A00626566202578202578202578205B
S113189225780A0061667420257820257820257829
S11318A22025780A004220256920257820257820E1
S11318B225690A0072657475726E696E67003E204E
S11318C2002573006C6564316F6E006C6564313D94
S11318D225640A006C6564316F666600676574622C
S11318E2746E310062746E313D25640A006765745A
S11318F261646376616C0049276D20736F7272793B
S113190220446176652C2049276D206166726169E5
S11319126420492063616E277420646F20746861B7
S11319227400627574746F6E20707265737365648B
S10519320000AF
S9030000FC
